:020000040000FA
:10000000600A0020C100000057070000CD06000074
:10001000FFFFFFFFFFFFFFFFFFFFFFFFFFFFFFFFF0
:10002000FFFFFFFFFFFFFFFFFFFFFFFF5B0700007A
:10003000FFFFFFFFFFFFFFFF59070000BD070000A4
:1000400035010000350100003501000035010000D8
:1000500035010000350100003501000035010000C8
:1000600035010000FFFFFFFFDD0600003501000045
:10007000350100003501000035010000FFFFFFFFE2
:10008000FFFFFFFF350100003501000035010000D2
:100090003501000035010000350100003501000088
:1000A0003501000035010000350100003501000078
:1000B0003501000035010000350100003501000068
:1000C0001D4880471D4880471D4800471D4801695D
:1000D000002908D14169002905D18169002902D18F
:1000E000C169002909D01848C1680901090D002912
:1000F0000ED005290CD006290AD0BFF34F8F134824
:100100001349016013491248C860BFF34F8FFEE7DF
:100110000E4801680E48884200D070470E480F49CB
:1001200001600A480E4901607047FEE7FEE7FEE7FE
:10013000FEE7FEE7FEE70000CD000000C507000077
:100140006501000000030840800108400000002015
:100150000400FA0500ED00E0008108400100000005
:10016000000000000348854600F05EF900480047A3
:10017000590A0000600A002030B50B4601460020F5
:100180002022012409E00D46D5409D4205D31D469D
:100190009540491B2546954040191546521E002D95
:1001A000F1DC30BD70B500242546002801DA0124B9
:1001B0004042002901DA01254942FFF7DDFFAC4248
:1001C00000D04042002C00D0494270BDF0B51FB4B1
:1001D00088B00B990998002448400999C00F49003C
:1001E00049080991C0070B990090490049080B91F3
:1001F00009990898A64608431CD00B990A98084309
:1002000018D0099801244000420D4800410D09987A
:1002100024050003000B204309900B980003000BFA
:1002200020430B9050181C4940180022019014469E
:10023000104605E0002001460DB0F0BD032801DAAC
:10024000034600E003239C46C11A0AAE0AE05F00A1
:1002500008ADED5B4F00F75B7D430027AA187C419A
:10026000491C5B1E6145F2DD410004AB5A5221047A
:10027000120C0A43240C401C0828DFDB0198029072
:100280000099704601910090059B049A0799069881
:1002900000F078F8D0E700000DFCFFFF0EB5C217A4
:1002A000C10F5040CA0740180021054B029301922C
:1002B00000910A460B4600F065F803B000BD00004F
:1002C0003304000070B5CD0F4A0009030123090B68
:1002D0001B0519430B4BED070024520D9A4201DA1E
:1002E000002070BD074B34339A4203DC9A1A00F0A9
:1002F0002BF802E00449511888402C43F1D04042C9
:1003000070BD0000FF030000CDFBFFFF4A000903A2
:100310000123090B1B051943094B10B5520D9A42D5
:1003200001DA002010BD064B34339A4203DC9A1ADE
:1003300000F00AF810BD03495118884010BD0000B4
:10034000FF030000CDFBFFFF10B5202A04DB0846A9
:10035000203AD040002110BD0B46D340D04020248D
:10036000A21A91400843194610BD10B5002B08DAB7
:100370000024401C614192185B411A4301D140089E
:10038000400010BDF0B51FB482B005460C0003D08C
:10039000084600F03BFB02E000F038FB203002464C
:1003A00000902146284600F051F8049B059A044627
:1003B0000F4618431143084314D0184610431BD06E
:1003C000009840210A1A18460599FFF7BDFF054617
:1003D0000E46009A0599049800F038F8084305D0B5
:1003E000012004E02046394607B0F0BD0020C117C7
:1003F00005430E432C43374300990E986305401A7A
:100400007905E40A00220C43FD0A0A3002D50020D7
:100410000146E9E70105101969410C9C0D9D001981
:100420006941FFF7A2FFDFE7064C0125064E05E014
:10043000E36807CC2B430C3C98471034B442F7D305
:10044000FFF794FEC80B0000E80B000010B5202A4F
:1004500004DB0146203A9140002010BD914020234A
:100460009C1A0346E3401943904010BD70B58D18A7
:100470000478401CA207920F01D10278401C23117E
:1004800006D10378401C03E006780E70401C491C1E
:10049000521EF9D1002B15D002780C268A1A34404E
:1004A000401C0C2C03D0A401121B9B1C08E00478F8
:1004B0002402121B401CF8E714780C70491C521CD3
:1004C0005B1EF9D5A942D3D3002070BDF0B5964686
:1004D0000A461349C000461800230025FF20984013
:1004E0002C46104216D00020012199408C4611461E
:1004F000C1406746394206D087000F21B9400D43FD
:100500007146B9400C43401C0828F0D33068A8431A
:10051000204330600833361D082BDEDDF0BD0000BF
:100520002020024010B5002000F00EF87D22192195
:100530000A23D2004901022000F058F800F04CF8DC
:100540000028FBD010BD0000F0B5012605460024B0
:10055000012185B0890333463246204600F08CF8ED
:10056000042211020020FFF7B1FF29461748FFF7C8
:1005700003FE451E0320694608804D800C7137023A
:1005800002948F81124800F017FA3946104800F0A3
:10059000A3F969460E700720488001940C724E72D0
:1005A000681C3C2148436421FFF7E6FD6946488109
:1005B0008C81074800F0A8F90121054800F0C2F835
:1005C0000449B002086005B0F0BD0000001BB70090
:1005D00000C0024000E100E003480078002801D09C
:1005E00000207047012070474C080020FFB50546E9
:1005F00081B017460E461D48FFF7BEFD441E3C2144
:1006000048436421FFF7B8FD00902846184D7D212E
:10061000287030467843C900FFF7C4FD87B26F8069
:1006200004987D217043C900FFF7BCFD80B2A8800B
:100630003818A860A1B20F4C204600F0BAF9009912
:1006400020468AB2012100F0AFF9012211022046B2
:1006500000F051F901221146204600F031F9012144
:10066000204600F03EF905B0F0BD0000001BB700C9
:100670004C08002000C00240F0B5084F7C6AFD6ABB
:100680003E6B84438D439643002B02D004430D43BD
:1006900016437C62FD623E63F0BD000000800840AE
:1006A00010B50446002000F065F8012000F062F863
:1006B0000549CC60C8680028FCD1801E00F05AF8BB
:1006C000002000F057F810BD00000020024801682B
:1006D0000029FCD0704700004808002070B5174D75
:1006E000FF210131284600F0F7F8154CA0680028DA
:1006F00023D0A068401EA060A068A188884204D1D1
:1007000000220121284600F0DBF8A068002814D15F
:100710006088A1884018A06001221146284600F098
:10072000CFF82178002904D0491E0906090E21704E
:1007300003D10021284600F0D4F870BD00C002406B
:100740004C08002010220029016F01D0114300E065
:10075000914301677047704770477047042204490E
:100760000428086902D09043086170471043FBE7F2
:1007700000E000E00749002806D00128086906D0FB
:1007800040084000086170470020886170470122DE
:100790001043F7E700E000E004490222002808695E
:1007A00001D0104300E090430861704700E000E092
:1007B000014948617047000000E000E000B500F02A
:1007C0001BF900BDF0B539491020C860384A012036
:1007D00010603849086B40252843086336480023D9
:1007E00044158668272EFCD100E044604668B605B3
:1007F000FBD500E043604668B605FBD41360486A49
:10080000032292029043486248680122D2021043B8
:1008100048608868C008C007FBD04868C008C000AE
:10082000C01C4860486B4007400F0328FAD1234A98
:100830001068C008C000401C10600B624868A043EC
:1008400048600868961530430860486817153843B3
:10085000486088688008C007FBD0086BA84308631D
:100860000868B04308600320000688614868204398
:10087000486088684008C007FBD01068C008C00006
:10088000801C10600B624868C008C000401C4860B3
:10089000486B4007400F0128FAD110681021084327
:1008A00010601068090208431060F0BD0081084024
:1008B000008308400080084000A106400002084074
:1008C00010B5036D490001248C40A3430365036DFB
:1008D0008A401343036510BDC943C167BFF34F8FFF
:1008E00070470029016902D00122114301E0490843
:1008F000490001617047002A426F01D00A4300E0BD
:100900008A43426770470000F0B50C78A2001218C5
:10091000154613469035A032AE4694466206214DE8
:100920004033120EA84201D1032400E00124944078
:100930001C4E056DE44325400565456D2540B042DC
:100940008E7902D1CF797F003E4396402E43466593
:10095000144FB84208D1C66E4D7A26400C7A6D000D
:100960002C4394403443C4661C68FF250835AC43CF
:100970001C601C684D882C431C604C8973461C60AD
:100980008C8963461C60B84206D10B7949794900CD
:100990000B439340016D02E0036D097991400B43D5
:1009A0000365F0BD00C00240890008189030026065
:1009B000704780308160704710B502464B888032A6
:1009C00093600B885360036803242404A3430360EB
:1009D000036801242406A343036003688C6823434F
:1009E0000360044B984201D10B79D36089898167F8
:1009F00010BD000000C002400348C168002902D0B9
:100A0000C168491EC1607047000000202021020C0F
:100A100001D010211046020A01D0104608390209FF
:100A200001D01046091F820801D01046891E4208D5
:100A300001D0881E7047081A704702E008C8121FCC
:100A400008C1002AFAD170477047002001E001C1B7
:100A5000121F002AFBD17047FFF764FD0020FFF74B
:100A600073FD0420C043FFF779FE08487D2189010A
:100A70000068FFF781FBFFF79BFE0120FFF78CFE6C
:100A800000F054F800F004F8FAE7000058080020DD
:100A9000FEB5214FC324002620483968FFF782FBAA
:100AA000009000203D4614353861600001902DE033
:100AB000840060194168002903DD0098FFF772FB8C
:100AC0000DE000290CDA49420098FFF76BFBFFF7B5
:100AD000E5FB0022124BFFF779FBFFF7F3FB06461D
:100AE0003046FFF7DBFB0F4A0F4BFFF76FFBFFF7BB
:100AF0000DFC82B2285B002381B23879FFF776FDC6
:100B00003046FFF7CDFD3869801C3861019938699E
:100B10008142CDDCFEBD00000000002080A9030062
:100B20000000F83FCDCCCCCCCCCCEC3FFEB5204F78
:100B30003E2400261F483968FFF734FB0090002050
:100B4000386160001C4D01902DE0840060194168FF
:100B5000002903DD0098FFF725FB0DE000290CDAE2
:100B600049420098FFF71EFBFFF798FB0022134B4A
:100B7000FFF72CFBFFF7A6FB06463046FFF78EFB80
:100B80000F4A104BFFF722FBFFF7C0FB82B2285B36
:100B9000002381B23879FFF729FD3046FFF780FD49
:100BA0003869801C3861019938698142CDDCFEBD0D
:100BB0000000002080A903002C0600200000F83F60
:100BC000CDCCCCCCCCCCEC3FE80B0000000000201E
:100BD0005C0800006C040000140D00005C0800209C
:100BE000040200004A0A000010068C0000000B04FA
:100BF0008301000110060B020000040892BA0812DB
:100C00000810431003086110529308524B30E1085A
:100C1000213092043803187003489204786180836D
:100C200070030821300219A448A178520BB0D20BEE
:100C3000A061909293E002FF02F001100856931811
:100C400002119318E1789602A8C3A403C861800733
:100C5000101704E005FFA005FFA00DFF300401A759
:100C6000F02D140652040829504B260188128808DA
:100C70004007FCFFFFFFD2016892B818DE02900522
:100C800012FE2821202108011638525D38529F108B
:100C90002168115F022EFF70DEBA20035E6ED00461
:100CA00083EE01102180564B005E2A3803C31501E4
:100CB000285288808FD2015803214801161061689C
:100CC00065E8522A3061A8031CD201789226582187
:100CD000F86578012680013EF8D2D2F8E02E0000B7
:100CE000060126014A015D018801B801EE010B02EF
:100CF0004B029302BA0210037003DC03400CC00DD8
:100D00006F0F53117213900BB80700010004006CB1
:040D1000DC02000001
:04000005000000C136
:00000001FF
