:020000040000FA
:1000000008020020C100000057050000E9030000BD
:10001000FFFFFFFFFFFFFFFFFFFFFFFFFFFFFFFFF0
:10002000FFFFFFFFFFFFFFFFFFFFFFFF790500005E
:10003000FFFFFFFFFFFFFFFF590500007B050000EA
:1000400035010000350100003501000035010000D8
:1000500035010000350100003501000035010000C8
:1000600035010000FFFFFFFF3501000035010000F2
:10007000350100003501000035010000FFFFFFFFE2
:10008000FFFFFFFF350100003501000035010000D2
:100090003501000035010000350100003501000088
:1000A0003501000035010000350100003501000078
:1000B0003501000035010000350100003501000068
:1000C0001D4880471D4880471D4800471D4801695D
:1000D000002908D14169002905D18169002902D18F
:1000E000C169002909D01848C1680901090D002912
:1000F0000ED005290CD006290AD0BFF34F8F134824
:100100001349016013491248C860BFF34F8FFEE7DF
:100110000E4801680E48884200D070470E480F49CB
:1001200001600A480E4901607047FEE7FEE7FEE7FE
:10013000FEE7FEE7FEE70000CD0000007D050000C1
:100140006501000000030840800108400000002015
:100150000400FA0500ED00E0008108400100000005
:10016000000000000348854600F01CF800480047E6
:10017000110800000802002030B50B46014600209F
:100180002022012409E00D46D5409D4205D31D469D
:100190009540491B2546954040191546521E002D95
:1001A000F1DC30BD064C0125064E05E0E36807CCC6
:1001B0002B430C3C98471034B442F7D3FFF7D6FFDB
:1001C000C4080000E4080000F0B596460A4613494A
:1001D000C000461800230025FF2098402C461042FE
:1001E00016D00020012199408C461146C140674637
:1001F000394206D087000F21B9400D437146B940FE
:100200000C43401C0828F0D33068A84320433060DA
:100210000833361D082BDEDDF0BD00002020024033
:1002200070B5184D0446686B4607760F00F02EF83F
:1002300015492060330000F0CFFA081405070714B1
:10024000140E1114606000E06160296A606805297D
:1002500009D3400908E00120C003F3E77D20000234
:10026000F0E70020EEE7C840A060A96A4903490F03
:10027000072902D0C840E06070BD0321FFF77CFF72
:10028000F9E700000080084000127A000C49086875
:10029000C869C20F4868400AC007C00F0ED009489D
:1002A000002A0BD18869C00D0007000F00D1102073
:1002B0008969044A4902890F5043C84070470000C9
:1002C0000080084000127A001FB541090A4A8900DF
:1002D0008A1800212E2800D10221C006C00E126803
:1002E000032383401A40C24054186846FFF798FF22
:1002F000029804B0E04010BD38800840F0B5084FC7
:100300007C6AFD6A3E6B84438D439643002B02D08A
:1003100004430D4316437C62FD623E63F0BD000062
:1003200000800840002A026801D00A4300E08A43A6
:100330000260704770B500210120800401230A4645
:10034000FFF7DCFF0122950329460220FFF73CFF5F
:100350000122D40321460220FFF736FF02210122A9
:100360000846FFF731FF2946074D01222846FFF7CF
:10037000D9FF012221462846FFF7D4FF012202219E
:100380002846FFF7CFFF70BD00400B40002A01D088
:10039000416270478162704770B50D461149000196
:1003A000441800202121490201230246FFF7A6FF3D
:1003B000227AE1882079FFF707FFA27BA189A07A42
:1003C000FFF702FF2946206800F09CF90122002176
:1003D000206800F0D9F901221146206800F0D4F914
:1003E00070BD0000B4080000024801680029FCD07C
:1003F00070470000000000200029016802D001229F
:10040000114301E04908490001607047C068884213
:1004100001D10120704700207047C1607047082259
:100420000029016801D0114300E091430160704749
:100430001FB500242246114901231046FFF75EFF35
:10044000072201210020FFF7BFFE07220221002022
:10045000FFF7BAFE684604704470847084800848D0
:10046000029068460473074C6946204600F016F86F
:1004700001212046FFF7D3FF1FBD0000024000000E
:1004800050C3000000900440016802221143016043
:100490007047C068084000D001207047FEB5044690
:1004A0000D460878497800270843A97822683E4617
:1004B00085239A43114308432060A888A0601C4804
:1004C000844201D1002003E01A48844203D1022073
:1004D000FFF7FAFE0746206803218903084023D06E
:1004E00001218903401A21D0884200D10926A96838
:1004F00014204143F80038180191FFF73DFE811B9D
:10050000287B00900D1A0B2078430199FFF734FEE9
:10051000811B0098081A002D00DA0025002800DA57
:10052000002025616061FEBD0626E0E70826DEE7C3
:1005300000800440009004408069C0B2704781612F
:10054000704703689B07FCD4002A02D00122920264
:100550001143C1617047704770470EB5E1204002FA
:100560000090FF200130694688800020C880088103
:100570004881FFF711FF0EBD70477047F0B539494C
:100580001020C860384A012010603849086B4025A7
:10059000284308633648002344158668272EFCD17B
:1005A00000E044604668B605FBD500E0436046685D
:1005B000B605FBD41360486A032292029043486256
:1005C00048680122D202104348608868C008C0070A
:1005D000FBD04868C008C000C01C4860486B40079A
:1005E000400F0328FAD1234A1068C008C000401CFD
:1005F00010600B624868A043486008689615304355
:100600000860486817153843486088688008C00744
:10061000FBD0086BA84308630868B0430860032058
:100620000006886148682043486088684008C00721
:10063000FBD01068C008C000801C10600B624868C6
:10064000C008C000401C4860486B4007400F0128AC
:10065000FAD110681021084310601068090208439D
:100660001060F0BD00810840008308400080084011
:1006700000A106400002084070B500F08FF81D246C
:100680001E4E640421463046FFF7C0FE0028F9D014
:1006900008213046FFF753FF0122920250213046D5
:1006A000FFF74FFF164C30462146FFF7AFFE0028FC
:1006B000F9D001213046FFF79FFE1924240421467A
:1006C0003046FFF7A3FE0028F9D03046FFF734FF8D
:1006D000054600213046FFF78FFE21463046FFF7E2
:1006E00095FE0028F9D03046FFF726FF04022C4380
:1006F0003046FFF7C9FE204670BD00000090044060
:100700000400180070B504460D46C88889886268E0
:1007100008432989184B1A40114308436989084343
:10072000606001208007844206D11820FFF7CCFDCD
:100730002968FFF721FD60621048844206D11A2023
:10074000FFF7C2FD2968FFF717FD60620C4884427D
:1007500006D11C20FFF7B8FD2968FFF70DFD606288
:100760000848844206D11E20FFF7AEFD2968FFF736
:1007700003FD606270BD0000FCE0FFFF000004406C
:10078000001000400010044010238B404168002AF4
:1007900001D0194300E099434160704770B50124CE
:1007A0000C4DE40421462846FFF773FE0028F9D1DA
:1007B00001246402002250212846FFF7C2FE284689
:1007C000C268510705D49105FAD52146FFF725FEE9
:1007D000F0E770BD0090044030B47446641E257884
:1007E000641CAB4200D21D46635D5B00E31830BC65
:1007F000184702E008C8121F08C1002AFAD1704742
:100800007047002001E001C1121F002AFBD1704790
:1008100008B5FFF7A2FEFFF70BFEFFF78BFD0122E5
:10082000164CD50329462046FFF7B0FD012296035A
:1008300031461DE00022314608E0D00602D50022F4
:10084000294603E010060CD5002202212046FFF7BE
:100850009DFDFFF711FF69460880009A9007ECD5CF
:10086000E8E7012231462046FFF790FD01222946A4
:100870002046FFF78BFD0122E7E7000000400B4018
:100880000202020101010103030101010C01020046
:1008900000400080020000100200040000000B4035
:1008A00000200B4000400B4000600B4000000000A7
:1008B00000000000000004400000100006000000DE
:1008C00020000600E40800000000002004000000F2
:1008D000F2070000E8080000040000200402000005
:0808E000020800000000000006
:04000005000000C136
:00000001FF
