:020000040000FA
:1000000040030020C1000000CD0F0000BD0F000024
:10001000FFFFFFFFFFFFFFFFFFFFFFFFFFFFFFFFF0
:10002000FFFFFFFFFFFFFFFFFFFFFFFF19100000B3
:10003000FFFFFFFFFFFFFFFFE50F00007D10000047
:1000400035010000350100003501000035010000D8
:10005000310B000035010000810B0000350100006C
:1000600035010000FFFFFFFF3501000035010000F2
:10007000BD0E00003501000035010000FFFFFFFF4D
:10008000FFFFFFFF5D0800008D0800003501000044
:100090003501000035010000350100003501000088
:1000A000B9110000350100003501000035010000E4
:1000B0003501000035010000350100003501000068
:1000C0001D4880471D4880471D4800471D4801695D
:1000D000002908D14169002905D18169002902D18F
:1000E000C169002909D01848C1680901090D002912
:1000F0000ED005290CD006290AD0BFF34F8F134824
:100100001349016013491248C860BFF34F8FFEE7DF
:100110000E4801680E48884200D070470E480F49CB
:1001200001600A480E4901607047FEE7FEE7FEE7FE
:10013000FEE7FEE7FEE70000CD0000008D100000A6
:100140006501000000030840800108400000002015
:100150000400FA0500ED00E0008108400100000005
:10016000000000000348854600F0F0FA0048004710
:100170002D1E00004003002030B50B460146002034
:100180002022012409E00D46D5409D4205D31D469D
:100190009540491B2546954040191546521E002D95
:1001A000F1DC30BDF0B50C465C4085B0E40FE407EF
:1001B00003944C00002664085900944649080246FE
:1001C0000296224321D062460A431ED06200570D98
:1001D0004A000E032303550D012402462C49240531
:1001E000781B1B0B360B40182343264361460090B7
:1001F0001C46501AB44103D30098401C009002E002
:10020000921800985B41002803DA0020014605B0EF
:10021000F0BD0020012109050746864611E064462D
:100220001D46141BB54106D36546521BB3417446A7
:1002300007430C43A646CD074008490828439218B7
:100240005B4105460D43EAD11046184313D0604682
:10025000194650407140084306D06046101AB34119
:1002600006D20122002306E000220123DB0702E080
:100270000122D2435310009874460105381C614195
:10028000029C039D0019694100F0B3F8BFE700002C
:10029000FD0300000EB505490291002100910A46B8
:1002A0000B46019100F0B2F803B000BD330400002A
:1002B000C20FD207400040080BD0C10D0723DB015D
:1002C000C91840020905400A1143C20840071143FA
:1002D0007047002001467047CB0FDB07490010B57F
:1002E000490802460A4307D00A0D07240903E4011E
:1002F000090B121B002A01DC002010BDC900440FAD
:100300000C43C100E018D205801800F031F810BD90
:10031000F0B51FB40646002082B005464024019186
:1003200000901BE0019922460F46304600F030FA5B
:10033000049A059B801A994110D31046194622460B
:1003400000F016FA361A8F4101972246012000214B
:10035000009F00F00DFA38184D4100902046641EB1
:100360000028DFDC019B00982946324607B0F0BD2B
:10037000002904DA401C490001D1400840007047C0
:1003800070B40024050C05D11024000402D100290A
:1003900021D01124050E01D100020834050F01D12E
:1003A0000001241D850F01D18000A41C002801DB61
:1003B0004000641C002908D020252E1B0D46F54066
:1003C000A14000D001212943084301061B1B000A5C
:1003D000DB1D02D5002070BC7047DB0518188018A3
:1003E0000029F8DA401C4900F5D170BC40084000F3
:1003F000704710B5002B08DA0024401C61419218A8
:100400005B411A4301D14008400010BDF0B51FB454
:1004100082B005460C0003D0084601F00BF802E05C
:1004200001F008F82030024600902146284600F0EE
:100430009FF9049B059A04460F461843114308434D
:1004400014D0184610431BD0009840210A1A1846B1
:10045000059900F09DF905460E46009A0599049805
:1004600000F086F9084305D0012004E02046394613
:1004700007B0F0BD0020C11705430E432C4337439E
:1004800000990E986305401A7905E40A00220C438E
:10049000FD0A0A3002D500200146E9E701051019DE
:1004A00069410C9C0D9D00196941FFF7A2FFDFE730
:1004B000F0B507460846584087B0C00F0490480082
:1004C0000E46590040084908BC1A884105D23846F2
:1004D00031461E4617460B46024658004008104358
:1004E0004CD0300D039040055900400D490D05904A
:1004F000401A0290402872DA18030121000B090506
:100500000843019004980092002805D001995242B6
:100510000020884100920190029840210A1A019916
:10052000009800F025F905460C466B4607CB00F015
:1005300040F9C0197141039A0E0D0023D717564098
:100540001A467A40164344D0049A002A2DD0029AC3
:10055000012A039A15DC1205C01A914101263605BD
:10056000001C7141D20F059ED207009301920296A2
:100570002A462346FFF74AFF07B0F0BD384631460A
:10058000FAE71605224A0F46B218C01AB7410121F0
:100590000905001C4F4100187F4111461818794188
:1005A000E20F10436D19644113E0E2076D08154333
:1005B0006408C2071443039A01261205C01A914128
:1005C0003605001C7141CE07400830434908C01869
:1005D00051412A462346FFF70CFFCDE7FFE7049879
:1005E00001224000C117121A00238B4104983146A2
:1005F000C417381AA141EEE730B40124E407634080
:1006000030BC55E730B40124E407614030BC4FE70B
:100610000000E0FFF0B51FB488B00B9909980024E2
:1006200048400999C00F490049080991C0070B9932
:100630000090490049080B9109990898A64608437B
:100640001CD00B990A98084318D00998012440003F
:10065000420D4800410D099824050003000B20437A
:1006600009900B980003000B20430B9050181C4975
:100670004018002201901446104605E00020014673
:100680000DB0F0BD032801DA034600E003239C46C9
:10069000C11A0AAE0AE05F0008ADED5B4F00F75BE0
:1006A0007D430027AA187C41491C5B1E6145F2DD91
:1006B000410004AB5A522104120C0A43240C401C82
:1006C0000828DFDB019802900099704601910090A4
:1006D000059B049A07990698FFF798FED0E700005B
:1006E0000DFCFFFF4A0009030123090B1B051943F9
:1006F0000A4B10B5520D9A4202DA0020014610BD95
:10070000064B34339A4203DC9A1A00F041F810BDCC
:10071000034BD21800F02CF810BD0000FF030000BE
:10072000CDFBFFFF10B5002904DB0124E4074042A4
:100730008C412146002B04DB1C460123DB0752427F
:10074000A341994200D1904210BD0000064C012502
:10075000064E05E0E36807CC2B430C3C9847103469
:10076000B442F7D3FFF702FD241F0000441F00002E
:1007700010B5202A04DB0146203A9140002010BD2C
:10078000914020239C1A0346E3401943904010BD3A
:1007900010B5202A04DB0846203AD040002110BDC5
:1007A0000B46D340D0402024A21A9140084319465A
:1007B00010BD10B5202A06DBCB170846203A1041A1
:1007C000C1170B4306E00B461341D0402024A21A68
:1007D00091400843194610BD10B50022072802D9E0
:1007E00001220838C0B29300054A9A1813688000A5
:1007F0000F248440A34381401943116010BD0000C1
:1008000000200240F0B596460A461349C00046183B
:1008100000230025FF2098402C46104216D00020CF
:10082000012199408C461146C1406746394206D0A5
:1008300087000F21B9400D437146B9400C43401C5D
:100840000828F0D33068A843204330600833361DB1
:10085000082BDEDDF0BD00002020024010B5094865
:1008600000F06CF80848084900782839012803D0BE
:10087000002800D1086010BD0868401C086048606E
:1008800010BD0000006007402800002010B510488F
:1008900000F054F80FA000F0BDFD1548017815A038
:1008A00000F0B8FD124C16A0283C216800F0B2FD03
:1008B00017A0616800F0AEFDA069FFF7F9FC0246E1
:1008C0000B4619A000F0A6FD02A000F0A3FD10BD8C
:1008D000007007402D2D2D2D2D2D2D2D2D2D2D2D45
:1008E0002D2D2D2D2D2D2D2D2D2D2D2D2D0A0000B5
:1008F00028000020636865636B3A25640A000000E5
:1009000076616C75655F636E743A25640A00000059
:1009100076616C75655F63757272656E745F636E28
:10092000743A25640A00000076616C75655F64693D
:100930007374616E63653A25660A00004168490870
:1009400049004160BFF34F8F7047000010B5002091
:10095000012212040123014600F0D6F80D480C498B
:100960000068FFF709FC0C4C0146204600F04FF8E8
:100970000021204600F04DF80121204600F03DF80E
:100980000021204600F030F8112000F021FB10BDBE
:10099000A0860100300000200060074010B5002054
:1009A000012252040123014600F0AEF80C480A214E
:1009B0000068FFF7E1FB0B4C0146204600F027F8EA
:1009C0000021204600F025F80121204600F015F80E
:1009D0000121204600F008F8122000F0F9FA10BDBD
:1009E000300000200070074004220029016801D077
:1009F000114300E09143016070470029016802D073
:100A00000122114301E04908490001607047C160BB
:100A100070478160704710B50F200121002200044B
:100A20008903012300F070F810BD000070B5184D67
:100A30000446686B4607760F00F02EF815492060D3
:100A4000330000F00EFD081405070714140E1114EE
:100A5000606000E06160296A6068052909D3400987
:100A600008E00120C003F3E77D200002F0E700204A
:100A7000EEE7C840A060A96A4903490F072902D0E0
:100A8000C840E06070BD0321FFF776FBF9E7000086
:100A90000080084000127A000C490868C869C20F3B
:100AA0004868400AC007C00F0ED00948002A0BD181
:100AB0008869C00D0007000F00D110208969044A21
:100AC0004902890F5043C840704700000080084029
:100AD00000127A001FB541090A4A89008A180021CC
:100AE0002E2800D10221C006C00E126803238340C5
:100AF0001A40C24054186846FFF798FF029804B0A5
:100B0000E04010BD38800840F0B5084F7C6AFD6AAF
:100B10003E6B84438D439643002B02D004430D4328
:100B200016437C62FD623E63F0BD00000080084019
:100B300070B5012000F04CF80F4C002819D00120AE
:100B400000F03EF80120A070C4030C4D00222146A5
:100B5000284600F0ACF901222146284600F0A7F90A
:100B6000012001F0F1F800222146284600F09FF90B
:100B700070BD0020A07070BD2800002000200B4038
:100B800010B500210C2000F02FF80B4A0B4C002868
:100B900008D001211046FFF727FF0C2000F010F8C5
:100BA000012007E000211046FFF71EFF0C2000F097
:100BB00007F80020207010BD0060074028000020CA
:100BC00001218140014841608160704740400240FE
:100BD0000449496801228240114201D00120704736
:100BE000002070474040024010B5084A5368012475
:100BF0008440234207D09268C240D007C00F884289
:100C000001D0012010BD002010BD00004040024076
:100C10000179027AC90712071143C288006811439B
:100C2000024A8000801801607047000000400240C6
:100C30000122054B82401868012902D090431860B8
:100C400070471043FBE70000404002403EB50024DF
:100C5000032101208903C00401232246FFF754FF2A
:100C6000012202210320FFF7CDFD104D01220221B8
:100C7000284600F0CDF802221146284600F002F97D
:100C800003210120FFF7A8FD0120009069460C71A7
:100C9000CC80022008726846FFF7BAFF012108469F
:100CA000FFF7C6FF042000F093F93EBD00600B4043
:100CB000FEB50024032101208903400401232246BC
:100CC000FFF722FF0122150329461046FFF79AFD80
:100CD000104E01222946304600F09AF80222294699
:100CE000304600F0CFF801210C20FFF775FD0C20F5
:100CF000009069460C71CC80042008726846FFF7AA
:100D000087FF01210C20FFF793FF062000F060F918
:100D1000FEBD000000200B40002A026801D00A43FB
:100D200000E08A4302607047F0B500242546234660
:100D3000CE0706D05E001746B7403C430327B740B6
:100D40003D4349085B1C102BF2D34169A943416123
:100D5000416921434161F0BDF8B5012211460020EF
:100D6000FFF750FD0122140321461046FFF74AFD0C
:100D7000012202210320FFF745FD01220421032067
:100D8000FFF740FD1F4D002221462846FFF7C4FF14
:100D90001D4E002202213046FFF7BEFF0022042133
:100DA0003046FFF7B9FF194F002201213846FFF7FF
:100DB000B3FF02222146284600F064F802221146C1
:100DC000304600F05FF802220421304600F05AF865
:100DD00002220121384600F055F80122114638461A
:100DE00000F016F801222146284600F011F80122F1
:100DF0000221304600F00CF801220421304600F0B8
:100E000007F8F8BD00200B4000600B4000000B40CD
:100E1000002A426801D00A4300E08A4342607047DA
:100E200070B50122D40321461046FFF7EBFC0122E6
:100E3000950329460220FFF7E5FC01222146022006
:100E4000FFF7E0FC022101220846FFF7DBFC01224C
:100E500021460A48FFF760FF2946094D012228462E
:100E6000FFF75AFF012221462846FFF755FF0122CE
:100E700002212846FFF750FF70BD000000200B4004
:100E800000400B40002A08D0012A09D082688A431A
:100E90008260C2688A43C260704782680A43F7E78B
:100EA000C2680A43C26082688A4382607047002A2F
:100EB00001D04162704781627047000070B5FF2623
:100EC0000C4D01363146284600F05EF90A4C226886
:100ED000012A0DD0022A0AD10021284600F059F932
:100EE00000223146284600F05EF90020206070BDE7
:100EF0000220FBE700E006403800002070B50D46F8
:100F00001149000144180020212149020123024611
:100F1000FFF7FAFD227AE1882079FFF773FCA27BC4
:100F2000A189A07AFFF76EFC2946206800F09AF9A3
:100F300001220021206800F0E4F901221146206816
:100F400000F0DFF970BD0000141F0000F8B5054681
:100F500013481349465D680010310C5A08460D3895
:100F6000475DB0000C3108580090304600F02EFA72
:100F70003A4621463046FFF745FC284600F012F875
:100F8000214602220098FFF77DFF214601220098AA
:100F9000FFF7CAFE214601220098FFF7BDFEF8BD0B
:100FA000E01E0000044A4100515A103A105C8000D3
:100FB0001C32105841627047F01E00000248016860
:100FC0000029FCD0704700002C0000207047000072
:100FD000C106C90E01208840014908607047000021
:100FE00000E100E070470EB5E12040020090FF20D4
:100FF0000130694688800020C88008814881FFF759
:101000007DFF0EBD0349C2B20A600A69D205FCD554
:1010100070470000000004407047000004220449AB
:101020000428086902D09043086170471043FBE729
:1010300000E000E00749002806D00128086906D032
:101040004008400008617047002088617047012215
:101050001043F7E700E000E0044902220028086995
:1010600001D0104300E090430861704700E000E0C9
:10107000014948617047000000E000E002488168D3
:10108000491C81607047000000000020F0B539491C
:101090001020C860384A012010603849086B40258C
:1010A000284308633648002344158668272EFCD160
:1010B00000E044604668B605FBD500E04360466842
:1010C000B605FBD41360486A03229202904348623B
:1010D00048680122D202104348608868C008C007EF
:1010E000FBD04868C008C000C01C4860486B40077F
:1010F000400F0328FAD1234A1068C008C000401CE2
:1011000010600B624868A043486008689615304339
:101110000860486817153843486088688008C00729
:10112000FBD0086BA84308630868B043086003203D
:101130000006886148682043486088684008C00706
:10114000FBD01068C008C000801C10600B624868AB
:10115000C008C000401C4860486B4007400F012891
:10116000FAD1106810210843106010680902084382
:101170001060F0BD008108400083084000800840F6
:1011800000A1064000020840C943C167BFF34F8F6A
:1011900070470029016902D00122114301E049088A
:1011A000490001617047002A426F01D00A4300E004
:1011B0008A4342677047000070B5234D20212846BE
:1011C00000F046F8214C002808D0284600F094F89A
:1011D0002169226A5218491C216110700221284697
:1011E00000F03BF800281AD08021284600F030F8A3
:1011F000002814D0E068002811D0E2692846117850
:10120000521CE26100F07BF8E168491EE160E06891
:10121000002804D100220221284600F065F80421AC
:10122000284600F01AF800280DD0FF210131284689
:1012300000F00EF8002806D000220421284600F015
:1012400053F80120606170BD0000044000000020E0
:101250000069084000D001207047C068084000D0F5
:101260000120704770B504460D46C88889886268B9
:1012700008432989184B1A401143084369890843D8
:10128000606001208007844206D11820FFF722FC0D
:101290002968FEF771FF60621048844206D11A2067
:1012A000FFF718FC2968FEF767FF60620C4884426C
:1012B00006D11C20FFF70EFC2968FEF75DFF606277
:1012C0000848844206D11E20FFF704FC2968FEF777
:1012D00053FF606270BD0000FCE0FFFF00000440AF
:1012E0000010004000100440002AC26801D00A43E8
:1012F00000E08A43C2607047006880B270470160B6
:10130000704710238B404168002A01D0194300E048
:1013100099434160704700003EB50024012021211F
:101320000004490201232246FFF7EEFB00222021A0
:101330001748FFF7A7FD062210210020FFF762FAE9
:10134000062220210020FFF75DFAE12040020090F4
:10135000FF2001940294013069468880CC800C8182
:101360004C810C4C2046FFF77DFF1820FFF730FE24
:10137000012205212046FFF7B7FF01220021204668
:10138000FFF7BFFF012211462046FFF7BAFF3EBD1F
:1013900000000B400000044010B5094C00206061C3
:1013A0000848E0612C20E060012206210648FFF792
:1013B0009BFFE0680028FCD160690028FCD010BDCC
:1013C00000000020B01E0000000004401CB50022F8
:1013D000009201216B460192195418784904C00704
:1013E000C00B88435978C907890B08430121890438
:1013F00088439978C907490B08430121C9048843E8
:10140000D9780123C907090B084301218903FFF794
:101410007BFB1CBD0FB410B503A9044B044A029812
:1014200000F0E8F810BC08BC04B01847A51D000087
:10143000340000202021020C01D010211046020AA5
:1014400001D010460839020901D01046091F820850
:1014500001D01046891E420801D0881E7047081A24
:10146000704730B47446641E2578641CAB4200D2C9
:101470001D46635D5B00E31830BC184702E008C8F6
:10148000121F08C1002AFAD170477047002001E0FE
:1014900001C1121F002AFBD170470000F0B51FB434
:1014A00084B007980699020D014314D04A484B496D
:1014B0001018484305140F9801280E981CD0281ABC
:1014C000401C0024464E4749009401910290002898
:1014D00014DA474227E00F98012443A3012808D0DB
:1014E000002104980F9A84600360C260416009B0D3
:1014F000F0BD0E98C143F4E74042E2E7074612E030
:10150000F80707D02246334601990098FFF782F882
:10151000019100902246334610461946FFF77AF8AB
:1015200004460E467F10002FEAD10298019B002846
:10153000009A0799069802DAFFF76CF801E0FEF7C7
:1015400031FE04460E460022284BFFF7EBF803D885
:101550000020C043014607E00022254B20463146CB
:10156000FEF7A6FFFFF7BEF8102409E0002C0ADB07
:101570000A220023FEF7CCFE059B30321A55641E6A
:1015800002460A43F2D11122641C059B121B1C194E
:101590000F9B012B03D0012308430ED10AE008431F
:1015A00004D011200E9000200F9084E70E98151A99
:1015B0006D1E0BE00E98824202DD00236D1C03E0DD
:1015C000824201DA00236D1E002BEED004980F99A1
:1015D0008260C16030C08AE701FCFFFF104D00004F
:1015E000000024400000F03F300000000000F04305
:1015F0000000E03FFFB597B00646002518E2252819
:1016000077D100242746FD49049400E00443761C6A
:1016100032780120203A90400842F7D130782A28C9
:101620000ED00222307801463039092916D80499A3
:101630000A235943303940181443761C0490F1E7CB
:10164000189802C804911890002904DA0120400378
:1016500004434842049002200443761C30782E282C
:1016600014D1042004437078761C2A2809D11898D4
:10167000761C80C8189009E00A214F43303FC719F3
:10168000761C3078014630390929F5D930786C2834
:1016900010D006DC4C281AD068280ED06A2817D142
:1016A00004E0742813D07A2812D110E001204005FC
:1016B00004430CE00121090501E0032109050C4365
:1016C0007178814203D1012000052418761C761C14
:1016D0003078119066280BD013DC58287DD009DCB7
:1016E00000287BD04528F6D04628F4D047281AD1C8
:1016F000A5E118E0632835D0642870D0652812D1A0
:101700009DE170286CD008DC6728F1D069287BD077
:101710006E280DD06F2806D1BAE073282ED0752818
:1017200071D0782859D01A9A199990476D1C7EE18A
:101730006002400F022809D003280DD00428189811
:1017400001680DD00D60001D189070E11898EA171F
:1017500001680D604A60F6E7189801680D80F2E7AD
:101760000D70F0E718986A4601781172001D189004
:101770000020507202A80090012005E0189802C8CD
:10178000189000200091C04361070DD5002101E0B1
:101790000199491C0191B94212DA8142F8DB009AA1
:1017A000515C0029F4D10BE0002101E00199491CB2
:1017B00001918142FADB019A0099895C0029F5D1F7
:1017C000019904981A9B471A21463846199A00F045
:1017D00097FA0199401945180BE04FE02CE113E00E
:1017E0004EE0009800990078491C00911A9A1999C6
:1017F00090470198401E0190401CF2D12146384686
:101800001A9B199A10E137E00A20002100900191FB
:101810006002410F022907D0189A01CA1892C21714
:101820009446032908D00AE01898C01DC108C900D1
:1018300005C91891944607E000B2C21794460429DE
:1018400002D140B2C1178C4600226146944506DAA7
:101850000A460021404291418C462D2102E021059B
:1018600004D52B216A461173012103E0E10701D061
:101870002021F7E7029155E00A200AE0102008E055
:10188000102000900021042004430191082703E068
:1018900008200021019100906002410F022907D029
:1018A000189A01CA189200229446032908D008E029
:1018B0001898C01DC108C90005C91891944603E0D5
:1018C00080B2042900D1C0B200210291210729D59C
:1018D0001199702906D0009A1021019B4A401A43A1
:1018E00005D00EE040216A461173012108E06146EF
:1018F000014306D030216A461173119951730221B8
:101900000291009A0821019B4A401A430AD161467C
:10191000014301D1610705D530216A4611730121C8
:101920007F1E02911199582904D035A10E910DA95D
:101930000D910DE037A1F9E76146019B009AFEF792
:10194000E7FC0E9B8C469B5C0D9A521E0D92137009
:1019500061460143F0D10D9805A9081A2030019085
:10196000600703D501200004844300E001270198AB
:10197000874201DD381A00E00020019900904118EB
:10198000029809180498401A0490E00306D42146EE
:101990001A9B199A049800F0B3F94519002706E03C
:1019A00003A81A9AC05D199990476D1C7F1C029874
:1019B0008742F5DBE0030CD521461A9B199A04985F
:1019C00000F09EF9451904E01A9A302019999047C1
:1019D0006D1C0099481E00900029F5DC08E00D9868
:1019E0000D990078491C0D911A9A199990476D1C10
:1019F0000199481E01900029F1DC63E109280100EA
:101A00003031323334353637383961626364656674
:101A10000000000030313233343536373839414236
:101A2000434445460000000000F05AF94519761C71
:101A30003078002800D0E2E528461BB0F0BD6007F2
:101A400000D406271898C01DC108C90048680A6854
:101A50000831C30FDB071891190001D09CA108E0E1
:101A6000210501D59BA104E0E10701D09AA100E086
:101A70009AA1430011985B08109165280CD006DCF0
:101A8000452809D046281DD0472841D141E0662885
:101A900018D067283CD13CE00021112F01DB112038
:101AA00000E0781C0191009008A911A8FFF7F6FC4E
:101AB000139905910021119A15927F1C1298019794
:101AC000009150E00120C00703900120019008A977
:101AD000009711A8FFF7E2FC139A149905920022CF
:101AE000119B009212981593059A0192002901D03A
:101AF000104602E0791C40180190381A01D501986F
:101B000004E04042401E0090781C0190C01B0290EF
:101B100043E0012F00DA01270021112F01DD112000
:101B200000E038460191009008A911A8FFF7B6FC23
:101B300013990591119A002112981592009101971D
:101B400021070CD40599B94201DB019900E001910C
:101B5000012904DD159A491E515C302906D0B8428E
:101B600001DA011D05DA0121029115E00199491EF2
:101B7000EDE7002805DC0099411800910199091A48
:101B800003E0019A411C914200DD01910099401A45
:101B9000401C02900120C0070390200706D4029940
:101BA0000198814202DB0020C04302900020694678
:101BB000C87707AF012103980337C907884224D0AB
:101BC000022011902B201290039800280CDA40423A
:101BD00003902D20129007E00A210398FEF7CCFA1B
:101BE00030317F1E039039701199481E11900029E1
:101BF000F2DC03980028EFD1791E12980870307833
:101C0000202108404530BF1E387006A8C01BC01DEB
:101C1000039010980078002800D001200199411805
:101C20000298C0170918039809180498401A401E12
:101C30000490E00306D421461A9B199A049800F0F8
:101C40005FF8451910980078002803D01A9A19995E
:101C500090476D1CE00324D521461A9B199A0498DD
:101C600000F04EF845191CE00098002807DB0099A9
:101C70000598884203DD1598405C199901E019998F
:101C800030201A9A904700986D1C401C00900298D2
:101C9000401E0290002804D11A9A2E2019999047CC
:101CA0006D1C0199481E01900029DDDC05E03878A3
:101CB0001A9A7F1C199990476D1C0399481E03902E
:101CC0000029F4DC21461A9B199A0498ACE600001E
:101CD0002D0000002B00000020000000000000008C
:101CE000F8B5044600251E461746880404D405E0CE
:101CF00039462020B0476D1C641EF9D52846F8BD32
:101D0000FFB50446002581B01E46C80301D5302723
:101D100000E02027880404D505E038460399B04741
:101D20006D1C641EF9D5284605B0F0BD70B57D2543
:101D30000446ED0002E0284600F006F82046641E46
:101D4000A4B20028F7D170BD10B504460420C043EA
:101D5000FFF764F9114810490068FEF70DFAFFF724
:101D600087F90020FFF778F90020FFF763F90120D9
:101D7000FFF760F900210A4A03E01369D803FCD594
:101D8000491CA142F9D30120C043FFF753F90020B9
:101D9000FFF750F910BD000000127A00300000205B
:101DA00000E000E010B5FFF72DF910BD70B51A4C3A
:101DB0006068FEF76FFA0022184BFEF7F3F9FEF7A2
:101DC0008BFA0121164A8903A061164C4D009042FE
:101DD00005DC00222046FFF76AF8012207E0124ADC
:101DE00090420ADC01222046FFF761F800222946D2
:101DF0002046FFF75CF8012209E001222046FFF7A8
:101E000056F8012229462046FFF751F80022022108
:101E10002046FFF74CF870BD00000020000018407D
:101E20000000704100400B4000004842FEF7F3FD07
:101E3000FFF7D9F8FEF790FFFFF76EFAFEF7F0FF15
:101E4000FF20164DF5306862FEF732FFFEF7FEFE0A
:101E5000FEF77CFDFEF7A2FD00246C607D20C00033
:101E60002C60FFF763FF0020FFF770F80120FFF7F9
:101E70006DF80220FFF76AF80948286209A0FFF709
:101E8000C9FAFFF789FA094804612F214161846189
:101E900002210161FFF78AFFFCE70000000000203B
:101EA000BC00002073746172740A000000E000E05E
:101EB0006D79206E616D653A207472696E68206C70
:101EC0006520686F616E67202D2D203137313436E3
:101ED0003032332D2D686F6C74656B0A0000000082
:101EE0000202020101010103030101010C010200D0
:101EF00000400080020000100200040000000B40BF
:101F000000200B4000400B4000600B400000000030
:101F10000000000000000440000010000600000067
:101F200020000600441F0000000000203C000000CC
:101F30007C140000801F00003C000020040300000F
:101F40008C140000000000000000000000000000F1
:101F50000000000000000000000000000000000081
:101F60000000000000000000000000000000000071
:101F700000000000006CDC02000000000000000017
:04000005000000C136
:00000001FF
