:020000040000FA
:1000000060030020C10000005D0A0000F909000043
:10001000FFFFFFFFFFFFFFFFFFFFFFFFFFFFFFFFF0
:10002000FFFFFFFFFFFFFFFFFFFFFFFF950B00003C
:10003000FFFFFFFFFFFFFFFF610B0000D50B00007C
:1000400035010000350100003501000035010000D8
:1000500009060000290600006106000035010000C5
:1000600045020000FFFFFFFF3501000035010000E1
:10007000D90800003501000035010000FFFFFFFF37
:10008000FFFFFFFF5D03000091030000350100004A
:100090003501000035010000350100003501000088
:1000A0003D0E000035010000350100003501000063
:1000B0003501000035010000350100003501000068
:1000C0001D4880471D4880471D4800471D4801695D
:1000D000002908D14169002905D18169002902D18F
:1000E000C169002909D01848C1680901090D002912
:1000F0000ED005290CD006290AD0BFF34F8F134824
:100100001349016013491248C860BFF34F8FFEE7DF
:100110000E4801680E48884200D070470E480F49CB
:1001200001600A480E4901607047FEE7FEE7FEE7FE
:10013000FEE7FEE7FEE70000CD000000E90B00004F
:100140006501000000030840800108400000002015
:100150000400FA0500ED00E0008108400100000005
:10016000000000000348854600F01CF800480047E6
:10017000F11200006003002030B50B46014600205C
:100180002022012409E00D46D5409D4205D31D469D
:100190009540491B2546954040191546521E002D95
:1001A000F1DC30BD064C0125064E05E0E36807CCC6
:1001B0002B430C3C98471034B442F7D3FFF7D6FFDB
:1001C00064140000841400008030C16070478022F5
:1001D0000029016801D0114300E09143016070479C
:1001E000012110B5890300208A02012300F0ECF9F7
:1001F00002224021002000F085F80621102000F0A6
:10020000F7F90F4C002301220221204600F043F8A9
:100210000021204600F053F800231A46062120460C
:1002200000F02BF80121204600F042F8012211468F
:10023000204600F019F8082000F012FC10BD000064
:100240000000014010B5064C01212046FFF7BCFF1D
:10025000206B01050348090D81620121417110BD28
:1002600000000140000000208030002A026801D018
:100270000A4300E08A4302607047930810B59B0070
:10028000181843689207D20E1F249440A34391404C
:100290000B43436010BD5B1E12021B04FF3A013A80
:1002A00013430B430168802211400B4303607047E6
:1002B000CA06D20E026749094901416770470162C7
:1002C00070470029416F02D00122114301E0490823
:1002D000490041677047000010B50022072802D985
:1002E00001220838C0B29300054A9A1813688000AA
:1002F0000F248440A34381401943116010BD0000C6
:1003000000200240F0B596460A461349C000461840
:1003100000230025FF2098402C46104216D00020D4
:10032000012199408C461146C1406746394206D0AA
:1003300087000F21B9400D437146B9400C43401C62
:100340000828F0D33068A843204330600833361DB6
:10035000082BDEDDF0BD00002020024010B509486A
:1003600000F050F8084C0221606A401C60620748A7
:1003700000F0A7FA6070002802D1012000F02CFBE9
:1003800010BD0000006007400000002000600B402E
:1003900010B5164800F036F8154C6079002803D0E7
:1003A00014A0E16A00F09AFE01210903144800F04C
:1003B00088FA0021A070012801D0217110BD01220E
:1003C0002271E078002806D0012806D0022806D045
:1003D000032807D007E0E27005E0022000E00320D8
:1003E000E07000E0E17000F04DFF10BD00700740CC
:1003F0000000002076616C75655F693A25640A002B
:1004000000200B404168490849004160BFF34F8F0D
:100410007047000010B5002001221204012301469C
:1004200000F0D2F80C4805210068FFF7A5FE0B4C40
:100430000146204600F04BF80021204600F049F824
:100440000121204600F039F80121204600F02CF867
:10045000112000F005FB10BD4400002000600740A3
:1004600010B50020012252040123014600F0ACF82F
:100470000B4800680B4C4108204600F028F800218A
:10048000204600F026F80121204600F016F8012150
:10049000204600F009F8122000F0E2FA10BD00003A
:1004A000440000200070074004220029016801D0A8
:1004B000114300E09143016070470029016802D0B8
:1004C0000122114301E04908490001607047C16001
:1004D00070478160704710B5072001210022400459
:1004E0008903012300F070F810BD000070B5184DAD
:1004F0000446686B4607760F00F02EF81549206019
:10050000330000F0FBFD081405070714140E111446
:10051000606000E06160296A6068052909D34009CC
:1005200008E00120C003F3E77D200002F0E700208F
:10053000EEE7C840A060A96A4903490F072902D025
:10054000C840E06070BD0321FFF716FEF9E7000028
:100550000080084000127A000C490868C869C20F80
:100560004868400AC007C00F0ED00948002A0BD1C6
:100570008869C00D0007000F00D110208969044A66
:100580004902890F5043C84070470000008008406E
:1005900000127A001FB541090A4A89008A18002111
:1005A0002E2800D10221C006C00E1268032383400A
:1005B0001A40C24054186846FFF798FF029804B0EA
:1005C000E04010BD38800840F0B5084F7C6AFD6AF5
:1005D0003E6B84438D439643002B02D004430D436E
:1005E00016437C62FD623E63F0BD0000008008405F
:1005F00010B5044CA26A072383409A4381400A4302
:10060000A26210BD0080084010B5012000F040F843
:10061000002805D0012000F033F80249012048608D
:1006200010BD00005001002010B50121022000F093
:100630003BF80A4C002804D0022000F021F80120E9
:1006400009E00021022000F02FF8002804D0022049
:1006500000F016F80020A06010BD0000500100203E
:1006600010B50C2000F014F8002805D00C2000F084
:1006700007F802490120086010BD00005001002069
:100680000121814001484160816070474040024043
:100690000449496801228240114201D0012070477B
:1006A000002070474040024010B5084A53680124BA
:1006B0008440234207D09268C240D007C00F8842CE
:1006C00001D0012010BD002010BD000040400240BC
:1006D0000179027AC90712071143C28800681143E1
:1006E000024A80008018016070470000004002400C
:1006F0000122054B82401868012902D090431860FE
:1007000070471043FBE70000404002403EB5002424
:10071000032101208903C00401232246FFF754FF6F
:10072000012204210320FFF7EDFD104D01220421D9
:10073000284600F083F802220421284600F0ACF895
:1007400003210220FFF7C8FD0220009069460C71CA
:10075000CC80042008726846FFF7BAFF012102200E
:10076000FFF7C6FF052000F07BF93EBD00600B409F
:10077000002A026801D00A4300E08A430260704701
:10078000F0B5002425462346CE0706D05E00174666
:10079000B7403C430327B7403D4349085B1C102B3F
:1007A000F2D34169A9434161416921434161F0BDEF
:1007B00070B50122140321461046FFF7A3FD012264
:1007C00002210320FFF79EFD012204210320FFF7F1
:1007D00099FD184D002221462846FFF7C9FF164E05
:1007E000002202213046FFF7C3FF002204213046D9
:1007F000FFF7BEFF02222146284600F04DF80222F4
:100800001146304600F048F802220421304600F03C
:1008100043F801222146284600F010F80122022167
:10082000304600F00BF801220421304600F006F8B3
:1008300070BD000000200B4000600B40002A4268A1
:1008400001D00A4300E08A434260704770B501223C
:10085000950329460220FFF755FD0122D4032146C6
:100860000220FFF74FFD022101220846FFF74AFD53
:100870002946084D01222846FFF77AFF012221462A
:100880002846FFF775FF012202212846FFF770FF77
:1008900070BD000000400B40002A08D0012A09D09A
:1008A00082688A438260C2688A43C26070478268F5
:1008B0000A43F7E7C2680A43C26082688A438260DB
:1008C0007047C069084000D001207047002A01D05D
:1008D000416270478162704770B5FF260C4D01364A
:1008E0003146284600F013FA0A4C2268012A0DD03E
:1008F000022A0AD10021284600F00EFA00223146D1
:10090000284600F013FA0020206070BD0220FBE7AB
:1009100000E006404C00002070B50D461149000172
:10092000441800202121490201230246FFF74CFE12
:10093000227AE1882079FFF7E5FCA27BA189A07AE1
:10094000FFF7E0FC2946206800F0CEFA01220021E2
:10095000206800F018FB01221146206800F013FB0C
:1009600070BD000054140000F8B505461348134943
:10097000465D680010310C5A08460D38475DB000DE
:100980000C3108580090304600F084FB3A4621466E
:100990003046FFF7B7FC284600F012F82146022245
:1009A0000098FFF779FF214601220098FFF7E8FE43
:1009B000214601220098FFF7DBFEF8BD201400005D
:1009C000044A4100515A103A105C80001C32105801
:1009D00041627047301400000649095C8A000549ED
:1009E0001C3189580A6A034B40001033185A4240A0
:1009F0000A62704720140000024801680029FCD0F8
:100A0000704700004000002070B5114CA2681249E8
:100A100010480979012A01D1002903D0A2680A43AC
:100A200002D005E0002200E001220221FFF74EFF84
:100A300060680025012802D16560FFF7CDFF2068BE
:100A4000012803D125600020FFF7C6FF70BD00001C
:100A50005001002000400B400000002070470000C3
:100A6000C106C90E01208840014908607047000096
:100A700000E100E010B50E4B012813D00D49012014
:100A80000860002211461C46184600F0A7F9002213
:100A90000121204600F0A2F901221102204600F0B7
:100AA00045F910BD0146184600F036F910BD0000AA
:100AB00000E006404C0000207FB5FF2501350024F2
:100AC000A90101232A462046FFF77EFD04221021BA
:100AD0000220FFF717FC042220210220FFF712FC5E
:100AE0001C496846018063214180047102941A4EBA
:100AF00085816946304600F077F90121304600F0E3
:100B0000FDF82946304600F002F90621684641808A
:100B10000125057144718471C47104724572448168
:100B2000848104706946304600F008F901220021F2
:100B3000304600F0D7F8684605706946304600F048
:100B4000FDF801221146304600F0CCF80349280395
:100B500008607FBDBF12000000E0064000E100E039
:100B600070470EB5E12040020090FF200130694639
:100B700088800020C88008814881FFF7CDFE0EBD27
:100B80000349C2B20A600A69D205FCD57047000069
:100B9000000004407047000004220449042808694A
:100BA00002D09043086170471043FBE700E000E08B
:100BB000044902220028086901D0104300E0904354
:100BC0000861704700E000E001494861704700009B
:100BD00000E000E000B500F027F902488168491CF8
:100BE000816000BD00000020F0B539491020C860C8
:100BF000384A012010603849086B402528430863B3
:100C00003648002344158668272EFCD100E0446056
:100C10004668B605FBD500E043604668B605FBD4E0
:100C20001360486A03229202904348624868012296
:100C3000D202104348608868C008C007FBD04868EB
:100C4000C008C000C01C4860486B4007400F032824
:100C5000FAD1234A1068C008C000401C10600B6223
:100C60004868A043486008689615304308604868A3
:100C700017153843486088688008C007FBD0086BA8
:100C8000A84308630868B043086003200006886131
:100C900048682043486088684008C007FBD0106857
:100CA000C008C000801C10600B624868C008C0000B
:100CB000401C4860486B4007400F0128FAD110687B
:100CC0001021084310601068090208431060F0BD4D
:100CD00000810840008308400080084000A10640D1
:100CE000000208408900081810214030002A0268DC
:100CF00001D00A4300E08A430260704702220029C3
:100D0000016901D0114300E0914301617047C9437B
:100D1000C167BFF34F8F70470029016902D00122DC
:100D2000114301E04908490001617047002A426F00
:100D300001D00A4300E08A4342677047F0B50C785F
:100D4000A2001218154613469035A032AE469446BE
:100D50006206214D4033120EA84201D1032400E067
:100D6000012494401C4E056DE44325400565456D06
:100D70002540B0428E7902D1CF797F003E43964024
:100D80002E434665144FB84208D1C66E4D7A2640B0
:100D90000C7A6D002C4394403443C4661C68FF25D4
:100DA0000835AC431C601C684D882C431C604C8982
:100DB00073461C608C8963461C60B84206D10B796F
:100DC000497949000B439340016D02E0036D0979B5
:100DD00091400B430365F0BD00C002408900081834
:100DE000903002607047000010B502464B88803298
:100DF00093600B885360036803242404A3430360B7
:100E0000036801242406A343036003688C6823431A
:100E10000360044B984201D10B79D36089898167C3
:100E200010BD000000C002400348C16B002902D081
:100E3000C16B491EC16370470000002070B5234D8F
:100E40002021284600F046F8214C002808D02846EA
:100E500000F094F8E169626B5218491CE16110706E
:100E60000221284600F03BF800281AD080212846AD
:100E700000F030F8002814D0A069002811D0226BAF
:100E800028461178521C226300F07BF8A169491EA4
:100E9000A161A069002804D100220221284600F0A7
:100EA00065F80421284600F01AF800280DD0FF212B
:100EB0000131284600F00EF8002806D00022042157
:100EC000284600F053F80120206270BD0000044065
:100ED000000000200069084000D001207047C06871
:100EE000084000D00120704770B504460D46C88800
:100EF0008988626808432989184B1A4011430843BE
:100F000069890843606001208007844206D1182067
:100F1000FFF740FB2968FFF72FF960621048844211
:100F200006D11A20FFF736FB2968FFF725F9606222
:100F30000C48844206D11C20FFF72CFB2968FFF7E0
:100F40001BF960620848844206D11E20FFF722FB8D
:100F50002968FFF711F9606270BD0000FCE0FFFF37
:100F6000000004400010004000100440002AC26845
:100F700001D00A4300E08A43C2607047006880B233
:100F800070470160704710238B404168002A01D0F0
:100F9000194300E099434160704700003EB50024CA
:100FA000012021210004490201232246FFF70CFB06
:100FB000002220211748FFF76FFC06221021002095
:100FC000FFF7A0F9062220210020FFF79BF9E1207E
:100FD00040020090FF20019402940130694688800D
:100FE000CC800C814C810C4C2046FFF77DFF1820F3
:100FF000FFF736FD012205212046FFF7B7FF01224A
:1010000000212046FFF7BFFF012211462046FFF7CF
:10101000BAFF3EBD00000B400000044070B50D4C0F
:10102000E069002814D0E1690B4A002013468033A0
:1010300002E01D5C1554401C8842FAD3002525624D
:101040002263A161012206210448FFF78FFFE561B9
:1010500070BD00000000002050000020000004408F
:1010600010B5094C00202062084820632C20A061A4
:10107000012206210648FFF779FFA0690028FCD16C
:10108000206A0028FCD010BD00000020F0130000F2
:10109000000004401CB50022009201216B46019221
:1010A000195418784904C007C00B88435978C907F8
:1010B000890B08430121890488439978C907490BA2
:1010C00008430121C9048843D9780123C907090BC2
:1010D000084301218903FFF777FA1CBD0FB410B54F
:1010E00003A9044B044A029800F024F810BC08BC81
:1010F00004B01847D91200004800002030B47446EC
:10110000641E2578641CAB4200D21D46635D5B0003
:10111000E31830BC184702E008C8121F08C1002AB3
:10112000FAD170477047002001E001C1121F002A68
:10113000FBD17047FFB58DB00446002506E0252899
:101140000AD0109A0F999047641C6D1C20780028D3
:10115000F5D1284611B0F0BD00270121484A00977B
:1011600000E00743641C23780846203B9840104267
:10117000F7D120782E2817D1042007436078641C0B
:101180002A280CD10E98641C02C800910E900BE026
:1011900000990A22514330394018641C009020788D
:1011A000014630390929F3D920780028D1D06428A4
:1011B00008D0692806D075281ED0109A0F9990473C
:1011C0006D1C5BE00A200E99019001C90E91002868
:1011D00002DA40422D2102E0390504D52B216A466E
:1011E0001172012103E0F90704D02021F7E70BAECB
:1011F0000B910DE00021FAE70A200E99019001C938
:101200000E91F7E70199FEF7B7FF3031761E317086
:101210000028F7D103A8801B20300190780701D562
:10122000009801E0012000900199884201DD401AF8
:1012300000E000200027009006E002A8109AC05DA0
:101240000F9990476D1C7F1C0B988742F5DB04E0DB
:10125000109A30200F9990476D1C0099481E0090FD
:101260000029F5DC05E03078109A761C0F9990473C
:101270006D1C0199481E01900029F4DC641C65E78F
:101280000928010070B512480121C278890311486C
:101290004C00002A08D0012A13D0022A15D0032AB4
:1012A00012D1002202210DE001220546FFF70EFBBC
:1012B000012221462846FFF709FB01220221284688
:1012C00000E00022FFF702FB70BD00222146F9E793
:1012D0000000002000400B4010B5FFF751FC10BD8E
:1012E00002498868401C88607047000000000020A8
:1012F000FFF7F1F8FFF735FCFFF75AFAFFF74EFE5C
:10130000FFF7A4FAFFF786F8FFF7AAF8FEF768FFE1
:10131000304C01212046FEF75AFF01212046FEF7FE
:10132000D0FFFF202C4CF530A0630020FFF71CFB02
:101330000120FFF719FB0220FFF716FB2748606327
:1013400027A0FFF7CBFEFFF78BFE0420C043FFF77B
:1013500023FC7D252448AD0129460068FEF70CFFDB
:10136000FFF732FC0120FFF723FCFFF7CFF9FFF76F
:10137000A3FB0120FFF77EFBFFF750FEFFF744FBC6
:10138000FFF7AEFF2061E168411AA942F4D9616913
:10139000002902D0012903D005E0E16A491C01E0DF
:1013A000E16A491EE162E26A642A01DB012102E08E
:1013B000002A01DC002161610C4EE06092B2002144
:1013C0003046FFF70BFDA08D012182B23046FFF7BA
:1013D00005FDD1E70000014000000020D000002002
:1013E00073746172740A00004400002000E006403B
:1013F0006D79206E616D653A207472696E68206C3B
:101400006520686F616E67202D2D203137313436AD
:101410003032332D2D686F6C74656B0A000000004C
:101420000202020101010103030101010C0102009A
:1014300000400080020000100200040000000B4089
:1014400000200B4000400B4000600B4000000000FB
:101450000000000000000440000010000600000032
:10146000200006008414000000000020500000004E
:1014700016110000D41400005000002010030000DA
:101480002611000000000000000000000000000025
:10149000000000000000000000000000000000004C
:1014A000000000000000000000000000000000003C
:1014B000000000000000000000000000000000002C
:1014C0000000000000000000006CDC0200000000D2
:0414D0000000000018
:04000005000000C136
:00000001FF
